:04000000FEEF7FF0A0
:10FE840007C001F008C002F0120007C005F008C066
:10FE940006F0120007C003F008C004F012000A6A5A
:10FEA400000EF86E00018BEF7FF079EC7FF09FEC91
:10FEB4007FF060EC7FF0CAEC7FF01200700E390125
:10FEC400D96F000EDB6F000EDD6F020EDF6F000EC8
:10FED400DE6F1200076E3901A3A973EF7FF075EF8F
:10FEE4007FF06DEF7FF060001FF0EAFD1200000E5E
:10FEF4003901C06F000EC16F000EC26F000EC36FD8
:10FF0400000EC46F000EC56F000EC66F000EC76FE3
:10FF1400120057EC7FF0680E6CEC7FF00A0E6CEC6C
:10FF24007FF0A30E096E550EE82EFED7092EFCD7DE
:10FF340000F08DEF7FF0FEEF7FF0000EBA6E000E42
:10FF4400BB6E000EBC6EFE0EC26EC368BF0EC46EE6
:10FF54007F0E3A01606F50694069000E816F000E98
:10FF6400516F000E416F000E616F000E426F000E64
:10FF7400526F000E626F436953696369446954693F
:10FF84006469080E846F130E166F170EE76F120064
:10FF9400000E3D01EC6F000EED6F000EEE6F000ED3
:10FFA400EF6F000EF06F000EF16FB00EF26F800E67
:10FFB400F36F000EF46F190EF56F000EF66F000E5E
:10FFC400F76F000EF86F000EF96F000EFA6F000E57
:10FFD400076E000E086E47EC7FF0000E076E000EF1
:10FFE400086E4CEC7FF0000E076E000E086E42ECBB
:0CFFF4007FF0000E0A6E120051EF7FF04B
:020000040020DA
:10000000FF0FFF0FFF0FFF0FFF0FFF0FFF0FFF0F80
:020000040030CA
:0A000000FCFFF7FF9FFFFFFFFFFF6B
:00000001FF
