:04000000FEEF7FF0A0
:10100000000000BE4200008E4200006C4200003C26
:101010004200000C420000B841000030410000A036
:10102000406572726F722073746174653A206672E3
:101030006F6D424D5300446973706C6179696E67DE
:101040002064617461004C45443A204D4147454E4F
:101050005441004C45443A205241494E424F5700BA
:10106000446973706C61792064617461004C45441B
:101070003A2059454C4C4F570042757A7A65723A7E
:10108000206F6666004C45443A20475245454E0065
:1010900042757A7A65723A206F6E004C45443A2068
:1010A000424C5545004C45443A20524544004C457D
:1010B000443A204F46460050524348474500445268
:1010C00049564500535441525400535461727400C0
:1010D00020202020004856004C5600008DEC12F0D5
:1010E000CA0E056E100E066ED4EC11F0000E426EA4
:1010F000000E476E000E436E000E446E000E456EED
:10110000000E466E000E3C6E000E3D6E000E3E6EF2
:10111000000E3F6E000E4D6E000E4C6E000E396ECE
:10112000000E386E000163516211611109E1650E14
:10113000605DD8A09EEF08F0A0EF08F0A4EF08F0E3
:10114000050E426E070E476E4C504D10D8B4ABEFF3
:1011500008F0ADEF08F01EEF0CF04250D8B4B3EF3A
:1011600008F0B5EF08F01EEF0CF0050E426E060E0B
:10117000476E38503910D8A4C0EF08F0C2EF08F01D
:101180001EEF0CF01EEF0CF0C40E056E100E066E76
:10119000D4EC11F0530E056E100E066ED4EC11F067
:1011A000790E056E100E066ED4EC11F0110E326E33
:1011B0003A0EE82EFED7322EFCD700D0900E056EE8
:1011C000100E066ED4EC11F0010E426E92EF08F094
:1011D00052505310D8A4EFEF08F0F1EF08F0FDEFF4
:1011E00008F0D80E056E100E066ED4EC11F0000E4D
:1011F000536E010E526E30EF09F0640E056E000E54
:10120000066E000E076E000E086E280E4824016E52
:10121000930E4920026EFE0E4A20036EFF0E4B20F5
:10122000046E1BEC11F0D89001360236200E01241A
:10123000D96E0E0E0220DA6E6F0078FF0EF06F008E
:1012400074FF0FF0000E116E640E106EB9EC10F00A
:101250000E50576E360E056E100E066ED4EC11F061
:10126000790E056E100E066ED4EC11F06D0E056E43
:10127000100E066ED4EC11F083EC12F00009D8B415
:1012800044EF09F046EF09F04CEF09F0050E426E0D
:10129000010E476E92EF08F079EC12F00009D8B415
:1012A00054EF09F056EF09F092EF08F0020E426E8B
:1012B00092EF08F0B70E056E100E066ED4EC11F02A
:1012C000460E056E100E066ED4EC11F0000E436E45
:1012D000000E446E000E456E000E466EB0EC12F02D
:1012E0003A6E150E3A6477EF09F079EF09F07DEF69
:1012F00009F0030E426E92EF08F0010E4326000E35
:101300004422452246220A0E431844104510461036
:10131000D8A48DEF09F08FEF09F06EEF09F0050EFC
:10132000426E020E476E92EF08F050505110D8A452
:101330009CEF09F09EEF09F0AAEF09F0D50E056EBB
:10134000100E066ED4EC11F0000E516E010E506EB0
:10135000DDEF09F0640E056E000E066E000E076EDE
:10136000000E086E280E4824016E930E4920026E6E
:10137000FE0E4A20036EFF0E4B20046E1BEC11F094
:10138000D89001360236200E0124D96E0E0E0220AE
:10139000DA6E6F0078FF0EF06F0074FF0FF0000E32
:1013A000116E640E106EB9EC10F00E50576E360EC2
:1013B000056E100E066ED4EC11F09B0E056E100E2D
:1013C000066ED4EC11F0790E056E100E066ED4EC9C
:1013D00011F083EC12F00009D8B4F1EF09F0F3EF4B
:1013E00009F01BEF0AF0ACEC12F00009D8A4FBEFF7
:1013F00009F0FDEF09F015EF0AF0900E056E100EE2
:10140000066ED4EC11F0A30E326E550EE82EFED708
:10141000322EFCD700F0790E056E100E066ED4EC5D
:1014200011F0040E426E92EF08F0050E426E030EAC
:10143000476E92EF08F0B0EC12F0326E150E326487
:1014400024EF0AF027EF0AF0010E28EF0AF0000E51
:10145000336E79EC12F00009D8B431EF0AF034EFB2
:101460000AF0010E35EF0AF0000E3310E8A03BEF52
:101470000AF03DEF0AF092EF08F0010E426E000E06
:101480003C6E000E3D6E000E3E6E000E3F6E92EF03
:1014900008F04E504F10D8A450EF0AF052EF0AF067
:1014A0005EEF0AF0BE0E056E100E066ED4EC11F063
:1014B000000E4F6E010E4E6EA2EF0AF067BF6FEF87
:1014C0000AF06751661109E1C40E645D090E6559A1
:1014D000D8B06DEF0AF06FEF0AF09CEF0AF0640EDF
:1014E000056E000E066E000E076E000E086E280ECA
:1014F0004824016E930E4920026EFE0E4A20036EB0
:10150000FF0E4B20046E1BEC11F0D8900136023612
:10151000200E0124D96E0E0E0220DA6E6F0078FFC5
:101520000EF06F0074FF0FF0000E116E640E106E5F
:10153000B9EC10F00E50576E600E056E100E066E70
:10154000D4EC11F0850E056E100E066ED4EC11F081
:101550003B68010E3C26000E3D223E223F223F50BA
:101560003E103D1009E1650E3C5CD8A0BAEF0AF0D0
:10157000BCEF0AF0C7EF0AF0000E3C6E000E3D6EA5
:10158000000E3E6E000E3F6EB2EC12F03B6EB4ECFD
:1015900012F0356E000E416E000E406EAAEC12F095
:1015A000326E3250346E336A33504012345041122E
:1015B000A8EC12F0326E3250401276C013F077C0B1
:1015C00014F078C015F079C016F040C001F041C0A9
:1015D00002F0036A046A000E5CEC0FF001C00FF029
:1015E00002C010F003C011F004C012F045EC0CF082
:1015F0000FC028F010C029F011C02AF012C02BF043
:1016000036EC10F028C040F029C041F04150366E51
:1016100040C037F079EC12F00009D8A412EF0BF0BB
:1016200014EF0BF016EF0BF0010E426E83EC12F08C
:101630000009D8A41EEF0BF020EF0BF022EF0BF007
:10164000030E426EAEEC12F00009D8B42AEF0BF094
:101650002DEF0BF0010E2EEF0BF0000E326E3B283B
:10166000D8A435EF0BF038EF0BF0010E39EF0BF08B
:10167000000E3210E8A03FEF0BF041EF0BF04FEF00
:101680000BF0050E426E040E476E000E3C6E000E0F
:101690003D6E000E3E6E000E3F6E92EF08F0000EA3
:1016A00000017B6F040E7A6F92EF08F0A50E056EB5
:1016B000100E066ED4EC11F0020E336E450E326E33
:1016C000AA0EE82EFED7322EFCD7332EFAD7AE0E56
:1016D000056E100E066ED4EC11F0020E336E450E40
:1016E000326EAA0EE82EFED7322EFCD7332EFAD752
:1016F000790E056E100E066ED4EC11F0060E47182A
:10170000D8A485EF0BF087EF0BF08DEF0BF0210ED7
:10171000056E100E066ED4EC11F04704D8A493EFBA
:101720000BF095EF0BF0A5EF0BF083EC12F0000936
:10173000D8A49DEF0BF09FEF0BF092EF08F0010E95
:10174000426E000E476E92EF08F0020E4718D8A4C2
:10175000ACEF0BF0AEEF0BF0C4EF0BF083EC12F03C
:101760000009D8A4B6EF0BF0B8EF0BF092EF08F039
:1017700079EC12F00009D8A4C0EF0BF0C2EF0BF027
:1017800092EF08F09FEF0BF0030E4718D8A4CBEFB1
:101790000BF0CDEF0BF0DDEF0BF083EC12F0000956
:1017A000D8A4D5EF0BF0D7EF0BF092EF08F0030EB3
:1017B000426E000E476E92EF08F0040E4718D8A450
:1017C000E4EF0BF0E6EF0BF0FEEF0BF0AEEC12F0F7
:1017D0000009D8B4EEEF0BF0F0EF0BF0F2EF0BF0E6
:1017E0009FEF0BF0B2EC12F0FF0AD8A4FAEF0BF067
:1017F000FCEF0BF092EF08F0D7EF0BF0070E471855
:10180000D8A405EF0CF007EF0CF00BEF0CF0050E71
:10181000426E92EF08F0060E4718D8A412EF0CF0B3
:1018200014EF0CF092EF08F007EF0CF0AE0E056E1F
:10183000100E066ED4EC11F092EF08F04250326EAA
:10184000336A3350000AD8B428EF0CF016EF0CF0CE
:101850003250000AD8B4C4EF08F0010AD8B4E8EF57
:1018600008F0030AD8B45AEF09F0010AD8B495EF8A
:1018700009F0070AD8B449EF0AF0010AD8B456EFC4
:101880000BF016EF0CF0FEEF7FF01250800B1B6E8A
:1018900012501224216E11AE50EF0CF052EF0CF0EA
:1018A00053EF0CF021802150D8B459EF0CF05BEFCE
:1018B0000CF06EEF0CF02128D8A461EF0CF063EF70
:1018C0000CF06BEF0CF0000E0F6E000E106E000EA1
:1018D000116E000E126E118E76EF0CF0000E0F6E70
:1018E000000E106E000E116E000E126E1650800B60
:1018F0001B1A16501624206E15AE81EF0CF083EFE4
:101900000CF084EF0CF020802050D8B48AEF0CF05B
:101910008CEF0CF09FEF0CF02028D8A492EF0CF085
:1019200094EF0CF09CEF0CF0000E136E000E146E92
:10193000000E156E000E166E158EA7EF0CF0000E41
:10194000136E000E146E000E156E000E166E2050F3
:10195000D8B4ADEF0CF0AFEF0CF0B7EF0CF02150B6
:10196000D8A4B5EF0CF0B7EF0CF0C1EF0CF0000EFF
:101970000F6E000E106E000E116E000E126E6BEFE9
:101980000EF015500F026F00CCFF26F06F00D0FF55
:1019900027F026501C6E1D6A1E6A1F6A2750226E91
:1019A000236A246A256A145010026F00CCFF26F0C7
:1019B0006F00D0FF27F026501C26000E1D221E228D
:1019C0001F2227502226000E2322242225221350D4
:1019D00011026F00CCFF26F06F00D0FF27F02650D9
:1019E0001C26000E1D221E221F2227502226000E1A
:1019F0002322242225221EC01FF01DC01EF01CC061
:101A00001DF01C6A135010026F00CCFF26F06F000F
:101A1000D0FF27F026501C2627501D22000E1E2224
:101A2000000E1F2214500F026F00CCFF26F06F0033
:101A3000D0FF27F026501C2627501D22000E1E2204
:101A4000000E1F221EC01FF01DC01EF01CC01DF086
:101A50001C6A13500F026F00CCFF26F06F00D0FFFE
:101A600027F026501C2627501D22000E1E22000E95
:101A70001F22155010026F00CCFF26F06F00D0FF20
:101A800027F02650222627502322000E2422000E63
:101A90002522145011026F00CCFF26F06F00D0FFFA
:101AA00027F02650222627502322000E2422000E43
:101AB0002522155011026F00CCFF26F06F00D0FFD9
:101AC00027F02650176E2750186E196A1A6A19C027
:101AD0001AF018C019F017C018F0176A175022260C
:101AE00018502322195024221A5025221CC017F006
:101AF0001DC018F01EC019F01FC01AF0190E86EF95
:101B00000DF0D8901A32193218321732E82E81EFC0
:101B10000DF01750222618502322195024221A5053
:101B200025221EC01FF01DC01EF01CC01DF01C6A27
:101B3000205021C017F0186A1726000E1822820EB6
:101B40001724266EFF0E1820276EBCEF0DF0D890DC
:101B500022362336243625361FAEB1EF0DF0B3EF13
:101B60000DF0B4EF0DF02280D8901C361D361E36D5
:101B70001F362606D8A0270624AEC1EF0DF0C3EF0E
:101B80000DF0A7EF0DF0000E206E1FAECAEF0DF0A6
:101B9000CCEF0DF0F0EF0DF0FF0E1C14176EFF0EE2
:101BA0001D14186EFF0E1E14196E7F0E1F141A6E70
:101BB0001750181019101A10D8B4E1EF0DF0E3EF18
:101BC0000DF0E7EF0DF0010E206EF0EF0DF022A00A
:101BD000ECEF0DF0EEEF0DF0F0EF0DF0E3EF0DF0A8
:101BE0002050D8B4F6EF0DF0F8EF0DF01CEF0EF02A
:101BF000010E2226000E23222422252225A003EFF7
:101C00000EF005EF0EF01CEF0EF022C017F023C00F
:101C100018F024C019F025C01AF01A341A321932FB
:101C20001832173217C022F018C023F019C024F060
:101C30001AC025F0264A272A27BE27EF0EF0275084
:101C400008E12628D8A027EF0EF029EF0EF033EF99
:101C50000EF0000E226E000E236E800E246E7F0E9C
:101C6000256E61EF0EF027BE40EF0EF0275006E123
:101C70002604D8B03EEF0EF040EF0EF04CEF0EF021
:101C8000000E226E000E236E000E246E000E256ED6
:101C9000000E1B6E61EF0EF026C021F0FF0E221623
:101CA000FF0E23167F0E2416000E251621A05BEFD3
:101CB0000EF05DEF0EF05EEF0EF0248ED890213026
:101CC000256E1B50251222C00FF023C010F024C037
:101CD00011F025C012F01200000005000D001600E2
:101CE0001F0027003000390043004C0056005A0006
:101CF0006A0075007F008A009600A200AE00BA005C
:101D0000C700D400E200F10000010F012001CD0066
:101D1000440159016C0182019A01B401D101F10120
:101D2000160241027502B7020C037103CC031404BE
:101D30004F048504B604E504130540056D059A05B6
:101D4000C705F70528065C069206CA06060743077C
:101D50008407C8070E085608A008E9087809BC09D6
:101D6000FD093C0A790AB70AF40A340B570BBB0B7E
:101D7000060C590CB50C1A0D8B0D050E880E0B0FA9
:101D8000880FFC0F6810CF1034119811FB115C12F2
:101D9000B8120E135E13A813ED132E146C14A914AD
:101DA000E3141D1556158E15C515FC153016631652
:101DB0009416C216ED1617173F1764178817AB173E
:101DC000CC17EC170C182B18491867188618A4188C
:101DD000C118E018FE181C193B195B197B199C19D6
:101DE000BE19E119041A281A4D1A721A981ABE1A45
:101DF000E41A0B1B311B581B7F1BA51BCB1BF11BB4
:101E0000171C3C1C621C871CAC1CD01CF51C191D2B
:101E10003C1D601D831DA61DC91DEB1D0E1E301E21
:101E2000521E741E961EB81EDA1EFC1E1E1F401F78
:101E3000621F841FA61FC81FEA1F0C202E205020DF
:101E400072209420B520D620F820182139215A215B
:101E50007A219A21B821DA21F92119223822572230
:101E600076229522B422D322F12210232E234C2352
:101E70006B238923A723C523E22300241D243B24AD
:101E8000582475249224AE24CB24E72403251F254F
:101E90003B25572572258D25A825AF25DD25F8255D
:101EA00012262C2645265F2678269126AA26C326AA
:101EB000DB26F3260B27A086096E0950D8B463EF02
:101EC0000FF065EF0FF087EF0FF004BE6CEF0FF02F
:101ED0006AEF0FF087EF0FF001C005F002C006F0C7
:101EE00003C007F004C008F0051E061E071E081EEA
:101EF000052A000E06220722082205C00BF006C0A4
:101F00000CF007C00DF008C00EF08FEF0FF001C00D
:101F10000BF002C00CF003C00DF004C00EF0015035
:101F2000021003100410D8A498EF0FF09AEF0FF0EE
:101F3000A4EF0FF0000E016E000E026E000E036E95
:101F4000000E046E35EF10F0960E0A6EAEEF0FF035
:101F50000A2AD8900E320D320C320B32000E0B14BE
:101F6000056E000E0C14066E000E0D14076EFE0EAC
:101F70000E14086E0550061007100810D8A4C3EF01
:101F80000FF0C5EF0FF0A8EF0FF0D3EF0FF00A2A14
:101F9000010E0B26000E0C220D220E22D8900E32BE
:101FA0000D320C320B32000E0B14056E000E0C14A9
:101FB000066E000E0D14076EFF0E0E14086E05500F
:101FC000061007100810D8A4E8EF0FF0EAEF0FF0A2
:101FD000C7EF0FF0F2EF0FF00A06D8900B360C3671
:101FE0000D360E360DBEF7EF0FF0F9EF0FF001EFE3
:101FF00010F0020E0A60FFEF0FF001EF10F0ECEFAF
:102000000FF00AB006EF10F008EF10F009EF10F033
:102010000D9ED8900A320AC005F0066A076A086A5F
:1020200005C008F0076A066A056A05500B120650DB
:102030000C1207500D1208500E120950D8B423EF9D
:1020400010F025EF10F02DEF10F004BE2CEF10F083
:102050002AEF10F02DEF10F00E8E0BC001F00CC027
:1020600002F00DC003F00EC004F012002A342B342D
:10207000316E3150D8A43FEF10F041EF10F04BEF2C
:1020800010F0000E286E000E296E000E2A6E000E53
:102090002B6EB8EF10F028C02CF029C02DF02AC00C
:1020A0002EF02BC02FF0200E5BEF10F0D8902F32C7
:1020B0002E322D322C32E82E56EF10F02C50306E8E
:1020C0002A8EFF0E2816FF0E2916FF0E2A16000E66
:1020D0002B16960E315E31BE72EF10F070EF10F0DD
:1020E00088EF10F03150800A970FD8B07AEF10F0D7
:1020F0007CEF10F07EEF10F041EF10F0D8902B3213
:102100002A3229322832313E7EEF10F0A0EF10F053
:102110001F0E31648EEF10F090EF10F098EF10F07A
:1021200041EF10F0D890283629362A362B36310662
:102130003150D8A49EEF10F0A0EF10F092EF10F005
:102140003050D8B4A6EF10F0A8EF10F0B0EF10F0B8
:102150002B1E2A1E291E286C000E29222A222B2221
:1021600028C028F029C029F02AC02AF02BC02BF063
:102170001200000E136E11BEC2EF10F0C0EF10F08F
:10218000C8EF10F0106C111ED8B0112A010E136E9A
:102190000FBECFEF10F0CDEF10F0D5EF10F00E6CBA
:1021A0000F1ED8B00F2A010E131A000E156E000E66
:1021B000146E10501110D8B4E0EF10F0E2EF10F0F0
:1021C0000AEF11F0010E126EEAEF10F0D8901036FF
:1021D0001136122A11AEEFEF10F0F1EF10F0E6EF2A
:1021E00010F0D8901436153610500E5C11500F5860
:1021F000D8A0FDEF10F0FFEF10F004EF11F0105039
:102200000E5E11500F5A1480D89011321032122ED7
:10221000F1EF10F01350D8B410EF11F012EF11F0ED
:1022200016EF11F0146C151ED8B0152A14C00EF05C
:1022300015C00FF01200000E096E000E0A6E000E9F
:102240000B6E000E0C6E0550061007100810D8B467
:102250002CEF11F02EEF11F064EF11F0010E0D6E66
:1022600038EF11F0D89005360636073608360D2AB5
:1022700008AE3DEF11F03FEF11F032EF11F0D890C2
:1022800009360A360B360C360550015C06500258EA
:102290000750035808500458D8A051EF11F053EFDD
:1022A00011F05CEF11F00550015E0650025A075024
:1022B000035A0850045A0980D8900832073206326F
:1022C00005320D2E3FEF11F009C001F00AC002F0F7
:1022D0000BC003F00CC004F01200000E3D01EC6FC7
:1022E000000EED6F000EEE6F000EEF6F000EF06F40
:1022F000000EF16FB00EF26F800EF36F000EF46FF0
:10230000190EF56F000EF66F000EF76F000EF86FE6
:10231000000EF96F000EFA6F000E016E000E026ED5
:102320009BEC12F0000E016E000E026E96EC12F0A5
:10233000000E016E000E026EA0EC12F0000E546E44
:102340001200D80EF66E1C0EF76E000EF86E03EE3D
:1023500020F210EEE0F109006F00D7FFEEFFE5502C
:10236000E150F9E1E250F7E14A0EF66E250EF76E04
:10237000000EF86E00EE76F010EE06F009006F0029
:10238000D7FFEEFFE550E150F9E100EE60F0100EEE
:10239000EE6AE806FDE100EE48F0180EEE6AE80687
:1023A000FDE100016EEF08F0000E096EEAEF11F09A
:1023B00009500524076E000E0620086E60001FF00D
:1023C000F6FF600023F0F7FFF86A0800F55060ECB4
:1023D00012F0092A05C001F006C002F02EEC12F03E
:1023E0000950076E086A0150075C02500858D8A0CF
:1023F000FCEF11F0FEEF11F0D8EF11F0D00E60EC11
:1024000012F01200000EBA6E000EBB6E000EBC6E13
:10241000FE0EC26EC368BF0EC46E7F0E3A01606FBF
:10242000BD0E506F4069000E816F000E516F000E9F
:10243000416F000E616F000E426F000E526F000E72
:10244000626F436953696369446954696469080E3A
:10245000846F130E166F170EE76F120001C003F0A2
:1024600002C004F036EF12F0014A022A600007F0C1
:10247000F6FF60000BF0F7FFF86A0800F55000095E
:10248000D8A445EF12F047EF12F034EF12F00350EA
:10249000015C016E04500258026E1200000E3901F8
:1024A000C06F000EC16F000EC26F000EC36F000E32
:1024B000C46F000EC56F000EC66F000EC76F12000E
:1024C000016E3901A3A967EF12F069EF12F061EF15
:1024D00012F0600007F0EAFD1200700E3901D96FAA
:1024E000000EDB6F000EDD6F020EDF6F000EDE6F81
:1024F0001200CBB27EEF12F081EF12F0010E82EFEC
:1025000012F0000E1200CBBC88EF12F08BEF12F02D
:10251000010E8CEF12F0000E12004EEC12F002ECE5
:1025200012F06DEC12F06DEC11F0120001C072F0BF
:1025300002C073F0120001C074F002C075F0120006
:1025400001C070F002C071F012000000803FFFFF78
:10255000595012005A5012005F5012005E50120083
:0C2560005C5012005B5012005D50120035
:04FFFC00A1EF11F070
:020000040020DA
:10000000FF0FFF0FFF0FFF0FFF0FFF0FFF0FFF0F80
:020000040030CA
:0A000000FCFFF7FF9FFFFFFFFFFF6B
:00000001FF
