:04000000FEEF7FF0A0
:10FDF80007C001F008C002F0120007C005F008C0F3
:10FE080006F0120007C003F008C004F012000D6AE3
:10FE1800000EF86E00015AEF7FF0076E60001FF0C9
:10FE2800F1FE3E01F88FF88112003E01F0510A6E92
:10FE3800096AEF510924076E000E0A20086E1200A5
:10FE480048EC7FF09CEC7FF02FEC7FF06EEC7FF0BD
:10FE5800CAEC7FF01200700E3901D96F000EDB6F0B
:10FE6800000EDD6F020EDF6F000EDE6F1200076EF0
:10FE78003901A3A942EF7FF044EF7FF03CEF7FF018
:10FE880060001FF0EAFD1200000E3901C06F000E7D
:10FE9800C16F000EC26F000EC36F000EC46F000E5C
:10FEA800C56F000EC66F000EC76F120024EC7FF0FE
:10FEB8006EEC7FF00A0E11EC7FF019EC7FF007C0B2
:10FEC8000BF008C00CF00B503BEC7FF061EF7FF0BB
:10FED800FEEF7FF0000E3E01DE6F000EDF6F000EBA
:10FEE800E06F000EE16F000EE46F000EE56F000E8C
:10FEF800EA6F000EEC6F000EF16F000EF36F000E4C
:10FF0800F46F000EF56F000EF66F000EF76F000E1F
:10FF1800F96F000EFA6F000EFB6F000EFC6F000EFB
:10FF2800FD6F000EFE6F000EFF6F840EF86F12005B
:10FF3800000EBA6E000EBB6E000EBC6EFE0EC26ED8
:10FF4800C368BF0EC46E7F0E3A01606FBD0E506F5E
:10FF58004069000E816F000E516F000E416F000E58
:10FF6800616F000E426F000E526F000E626F4369A0
:10FF780053696369446954696469080E846F0A0E99
:10FF8800DF6F130E166F170EE76F1200000E3D019C
:10FF9800EC6F000EED6F000EEE6F000EEF6F000EAF
:10FFA800F06F000EF16FB00EF26F800EF36F000E5F
:10FFB800F46F190EF56F000EF66F000EF76F000E56
:10FFC800F86F000EF96F000EFA6F000E076E000E44
:10FFD800086E01EC7FF0000E076E000E086E06EC4E
:10FFE8007FF0000E076E000E086EFCEC7EF0000E2F
:08FFF8000D6E12000BEF7FF00B
:020000040020DA
:10000000FF0FFF0FFF0FFF0FFF0FFF0FFF0FFF0F80
:020000040030CA
:0A000000FCFFF7FF9FFFFFFFFFFF6B
:00000001FF
